{
  "transactions": [
    {
      "hash": "0x1686b24ec412939a29e3ab4a7d7f7682a4dae2548e6ec8960fad33cf4f8ea479",
      "transactionType": "CALL",
      "contractName": null,
      "contractAddress": "0x5f62f5d07e9aad2381ce431b25658a0cd7c4978d",
      "function": "claim(address,uint256,bytes32[],uint8,bytes32,bytes32)",
      "arguments": [
        "0xf39Fd6e51aad88F6F4ce6aB8827279cffFb92266",
        "25000000000000000000",
        "[0xd1445c931158119b00449ffcac3c947d028c0c359c34a6646d95962b3b55c6ad, 0xe5ebd1e1b5a5478a944ecab36a9a954ac3b6b8216875f6524caa7a1d87096576]",
        "28",
        "0xe0b0f33bdf59f2d4574be805cc42a5b245d6f6d47b607e4326e00b06514f2311",
        "0x10fead107e464b3d0543f7de4e70f2597c15069744858ad1970c646b57ac5bbd"
      ],
      "transaction": {
        "from": "0x5508459a9622f327b05eb0aa85971fc9b2ea9a8d",
        "to": "0x5f62f5d07e9aad2381ce431b25658a0cd7c4978d",
        "gas": "0x1efdb",
        "value": "0x0",
        "input": "0x4497a169000000000000000000000000f39fd6e51aad88f6f4ce6ab8827279cfffb922660000000000000000000000000000000000000000000000015af1d78b58c4000000000000000000000000000000000000000000000000000000000000000000c0000000000000000000000000000000000000000000000000000000000000001ce0b0f33bdf59f2d4574be805cc42a5b245d6f6d47b607e4326e00b06514f231110fead107e464b3d0543f7de4e70f2597c15069744858ad1970c646b57ac5bbd0000000000000000000000000000000000000000000000000000000000000002d1445c931158119b00449ffcac3c947d028c0c359c34a6646d95962b3b55c6ade5ebd1e1b5a5478a944ecab36a9a954ac3b6b8216875f6524caa7a1d87096576",
        "nonce": "0x115",
        "chainId": "0xaa36a7"
      },
      "additionalContracts": [],
      "isFixedGasLimit": false
    }
  ],
  "receipts": [
    {
      "status": "0x1",
      "cumulativeGasUsed": "0x809d4c",
      "logs": [
        {
          "address": "0x5f62f5d07e9aad2381ce431b25658a0cd7c4978d",
          "topics": [
            "0xd8138f8a3f377c5259ca548e70e4c2de94f129f5a11036a15b69513cba2b426a",
            "0x000000000000000000000000f39fd6e51aad88f6f4ce6ab8827279cfffb92266"
          ],
          "data": "0x0000000000000000000000000000000000000000000000015af1d78b58c40000",
          "blockHash": "0x1653adaa504d8d22b81c070bd2aa32ae5d2fbbc22c322c67efb02e563ccb2b72",
          "blockNumber": "0x5f7b90",
          "transactionHash": "0x1686b24ec412939a29e3ab4a7d7f7682a4dae2548e6ec8960fad33cf4f8ea479",
          "transactionIndex": "0x29",
          "logIndex": "0x73",
          "removed": false
        },
        {
          "address": "0xedf9a9a305f2d434776f6699eca4bc3562c3def3",
          "topics": [
            "0xddf252ad1be2c89b69c2b068fc378daa952ba7f163c4a11628f55a4df523b3ef",
            "0x0000000000000000000000005f62f5d07e9aad2381ce431b25658a0cd7c4978d",
            "0x000000000000000000000000f39fd6e51aad88f6f4ce6ab8827279cfffb92266"
          ],
          "data": "0x0000000000000000000000000000000000000000000000015af1d78b58c40000",
          "blockHash": "0x1653adaa504d8d22b81c070bd2aa32ae5d2fbbc22c322c67efb02e563ccb2b72",
          "blockNumber": "0x5f7b90",
          "transactionHash": "0x1686b24ec412939a29e3ab4a7d7f7682a4dae2548e6ec8960fad33cf4f8ea479",
          "transactionIndex": "0x29",
          "logIndex": "0x74",
          "removed": false
        }
      ],
      "logsBloom": "0x00000000000000000000000000000000000080000000000000000000020020000000000000000000000000000000000000000000000000000000000000000000000000000000000000000008000000000000000000001000000080000000000000000000000000000000000100000000000000000000000000000010000000000000000000000400000020000000000000000000000000000000000000000004000000000000000000400000000000000000000000000000000000000000000000000002000000200000000000000000000000002000000000000000000000000002000000000000000004000000000000000001000000000000000000000000",
      "type": "0x2",
      "transactionHash": "0x1686b24ec412939a29e3ab4a7d7f7682a4dae2548e6ec8960fad33cf4f8ea479",
      "transactionIndex": "0x29",
      "blockHash": "0x1653adaa504d8d22b81c070bd2aa32ae5d2fbbc22c322c67efb02e563ccb2b72",
      "blockNumber": "0x5f7b90",
      "gasUsed": "0x166ff",
      "effectiveGasPrice": "0x11c39c2f07",
      "from": "0x5508459a9622f327b05eb0aa85971fc9b2ea9a8d",
      "to": "0x5f62f5d07e9aad2381ce431b25658a0cd7c4978d",
      "contractAddress": null
    }
  ],
  "libraries": [],
  "pending": [],
  "returns": {},
  "timestamp": 1720273422,
  "chain": 11155111,
  "commit": "9c1d505"
}